:020000040800F2
:10000000A0E10024D9030008E9B1000861A20008BA
:10001000D9B00008290C0008B10701080000000051
:1000200000000000000000000000000071C800088F
:10003000D11900080000000081B4000831CE00088A
:10004000F7030008F7030008F7030008F7030008A8
:10005000F7030008F7030008F7030008F703000898
:10006000F7030008F7030008F7030008F703000888
:10007000F7030008F7030008F70300081912000847
:100080002912000839120008F7030008612000084F
:10009000812000087120000891200008F703000863
:1000A000F7030008F7030008F7030008F703000848
:1000B000F7030008F7030008F7030008F703000838
:1000C000F7030008F7030008F7030008F703000828
:1000D00081C7000819E50008F7030008F7030008C6
:1000E00019200008F703000800000000F7030008CB
:1000F000F7030008E1CF0008F703000849120008E1
:10010000F7030008F7030008F7030008F7030008E7
:10011000F703000839D50008F7030008F7030008C3
:1001200059120008F7030008F703000869120008D5
:1001300079120008F7030008F7030008F703000826
:1001400000000000000000000000000000000000AF
:1001500089120008F7030008F7030008F7030008F6
:10016000F7030008F7030008F7030008F703000887
:10017000F7030008F1B10008F703000800000000D1
:10018000F7030008F703000849D50008F703000843
:10019000F7030008F7030008F7030008F703000857
:1001A000F7030008F7030008F70300080000000049
:1001B000F7030008F7030008F7030008F703000837
:1001C000F7030008F703000800000000000000002B
:1001D0000000000000000000F7030008000000001D
:1001E000000000000000000000000000000000000F
:1001F0000000000000000000F7030008F7030008FB
:10020000F7030008F703000800000000F7030008E8
:10021000F7030008F7030008F7030008F7030008D6
:10022000F703000800000000F703000800000000CA
:10023000F7030008F703000800000000F7030008B8
:10024000F7030008F7030008F7030008F7030008A6
:10025000F7030008F7030008F7030008F703000896
:10026000F7030008F7030008F7030008F703000886
:10027000F7030008F7030008F70300080000000078
:10028000F7030008F7030008F7030008F703000866
:1002900000000000F7030008F7030008000000005A
:1002A00000000000F7030008F7030008F703000848
:1002B000F7030008F7030008F7030008A12000086F
:1002C000B1200008F7030008F703000800F002F867
:1002D00000F072F814A696E8000CB244B344DA4574
:1002E00001D100F069F8BAE80F000FA696E83000D7
:1002F000A5EB040504EB0607AAEB0704A7F1010729
:100300004FEA15154FEA3414A4F10104AC4201D3AD
:1003100000F052F813F0010F18BFFB1A43F001036D
:1003200000F001F8DBE71847CC3D0100EC3D01008F
:100330000A444FF0000C10F8013B13F0070408BF0B
:1003400010F8014B1D1108BF10F8015B641E05D0A9
:1003500010F8016B641E01F8016BF9D113F0080F5E
:100360001EBF10F8014BAD1C0C1B09D16D1E58BFF0
:1003700001F801CBFAD505E014F8016B01F8016B27
:100380006D1EF9D59142D6D370470000704700002A
:100390000023002400250026103A28BF78C1FBD88E
:1003A000520728BF30C148BF0B6070471FB513F01C
:1003B00016FA1FBD10B510BD00F066F91146FFF723
:1003C000F5FF10F031FE00F084F903B4FFF7F2FFFF
:1003D00003BC00F087F900000A4880470A488047BC
:1003E0000A480047FEE7FEE7FEE7FEE7FEE7FEE716
:1003F000FEE7FEE7FEE7FEE705480649064A074B2B
:10040000704700004120000809CF0008CD02000815
:10041000A0810024A0E10024A0A10024A0A1002428
:1004200053EA020C00F069802DE9F04B4FF0000612
:10043000002B1FBFB3FA83F503FA05F424FA05F67F
:100440005E4012BF1643B2FA82F502FA05F4C5F116
:1004500020051EBF22FA05FC44EA0C04203556EAAA
:10046000044C4FEA144418BF641C4FF000084FF0CE
:100470000009904271EB030C39D3002919BFB1FA7E
:1004800081F701FA07F6B0FA80F700FA07F6C7F12C
:1004900020071EBF20FA07FC46EA0C062037B6FBF1
:1004A000F4FCA7EB0507103F07F01F0BCBF120066C
:1004B0002CFA06F60CFA0BFB44BFB3460026202F9D
:1004C000A4BF5E464FF0000B5BEA060C08BF4FF07E
:1004D000010B19EB0B0948EB0608ABFB027C06FB92
:1004E00002CC0BFB03CCC01B71EB0C01C1E70B462C
:1004F000024641464846BDE8F08B13B5084318BF95
:100500004FF0FF300146AFF30080BDE81C4070475C
:10051000032A40F2308010F0030C00F0158011F82F
:10052000013BBCF1020F624498BF11F801CB00F807
:10053000013B38BF11F8013BA2F1040298BF00F85B
:1005400001CB38BF00F8013B11F0030300F0258018
:10055000083AC0F0088051F8043B083A51F804CB3F
:10056000A0E80810F5E7121D5CBF51F8043B40F805
:10057000043BAFF30080D20724BF11F8013B11F810
:1005800001CB48BF11F8012B24BF00F8013B00F854
:1005900001CB48BF00F8012B704710B5203AC0F0DE
:1005A0000B80B1E81850A0E81850B1E81850A0E846
:1005B0001850203ABFF4F5AF5FEA027C24BFB1E8DF
:1005C0001850A0E8185044BF18C918C0BDE8104022
:1005D0005FEA827C24BF51F8043B40F8043B08BF2B
:1005E0007047D20728BF31F8023B48BF11F8012BF2
:1005F00028BF20F8023B48BF00F8012B704702F0EB
:10060000FF0343EA032242EA024200F002B84FF03D
:10061000000200B5134694469646203922BFA0E852
:100620000C50A0E80C50B1F12001BFF4F7AF09075E
:1006300028BFA0E80C5048BF0CC05DF804EB89004F
:1006400028BF40F8042B08BF704748BF20F8022B92
:1006500011F0804F18BF00F8012B704770477047AA
:10066000704710B500F008F8006810BD10B50446DA
:1006700000F002F8046010BD00487047F006002446
:1006800000487047F00600247546FFF7F9FFAE46B4
:1006900005006946534620F00700854618B020B58E
:1006A000FFF7AAFEBDE820404FF000064FF000071C
:1006B0004FF000084FF0000BAC46ACE8C009ACE8C6
:1006C000C009ACE8C009ACE8C00921F007018D46BB
:1006D000704710B50446AFF300802046BDE81040D7
:1006E000FFF773BE01491820ABBEFEE726000200EB
:1006F000704700000000000010B50446006842F298
:10070000001140F48070C4F20201884204D142F228
:100710000830C4F2020003E046F20830C5F60200D9
:10072000006810F4403F0FD007F0B2FC6168B1F5EB
:10073000803F05D0B1F5403F21D0B1F5003F1FD13A
:10074000090CB0FBF1F01BE04FF40020002106F093
:10075000EFFC6168A1F580224FEAB2420A2A0FD865
:10076000DFE802F00606060606063C3A40383E0080
:100770006FF0010202EA5141B0FBF1F000E08008A5
:100780004BF62141C0F2BE01884205D8206881683D
:1007900021F44071816010BD47F64101C0F27D1126
:1007A000884206D820680122816862F309218160AD
:1007B00010BD21684FF28102C0F2FA22904288688F
:1007C00004D8022262F30920886010BD40F4407012
:1007D000886010BDC009D3E74009D1E70009CFE721
:1007E000000ACDE78009CBE740F600000121C5F6FD
:1007F0000200012205F00CBB40F600000121C5F605
:100800000200002205F004BB40F600000821C5F6F6
:100810000200012205F0FCBA40F600000821C5F6EE
:100820000200002205F0F4BAF0B583B00021019176
:1008300004460091FFF7E0FF922000F0D9F99220E2
:1008400000F0D6F968460626451E2F46552000F0D2
:10085000CFF9013E07F8010F3006F7D1FFF7C4FFCB
:10086000BDF90000BDF90420BDF902109FED492A31
:1008700000EE100A03EE102A01EE101AA083E183A5
:10088000B8EEC00A2284B8EEC11AB8EEC33A20EE20
:10089000020A21EE021A84ED000A23EE020A84ED18
:1008A000011A84ED020AFFF7A7FFA22000F0A0F9C9
:1008B000A22000F09DF902262F4600BF552000F02F
:1008C00097F9013E07F8010F3006F7D1FFF78CFFCB
:1008D0009DF90000B4EE001A9DF80110B3EE072A4E
:1008E000C2B200284FEAC20242EA51114FF600029A
:1008F000CFF6FF7248BF114300EE101A2185B8EE03
:10090000C00AA0EE012A84ED062AFFF785FF8020A9
:1009100000F06EF9082600BF552000F069F9013E8D
:1009200005F8010F3006F7D1FFF76EFF9DF80000C4
:100930000F2804D1BDF80200608401986062B4F908
:100940002200B4F9241094ED0B2A9FED133A00EE27
:10095000100AB4F9260001EE101A04EE100A012064
:10096000B8EEC00A84F83C00B8EEC11AB8EEC44A2A
:1009700090EE032A94ED0C0A91EE030A94ED0D1A01
:1009800094EE031A84ED032A84ED040A84ED051A1B
:1009900003B0F0BD3333EB3A58A08B3A00000000AF
:1009A0002DE9F04F81B043F6500A43F6720B4FF039
:1009B0000008C0F6010AC0F6010B0BE0FF2049EA6F
:1009C000080141EA0008022000F05AFFB8F1000FC8
:1009D00000F0F880FFF710FF802000F009F95520A3
:1009E00000F006F9552000F003F9FFF7FDFE962010
:1009F00000F05AFFFFF700FF802000F0F9F85520C3
:100A000000F0F6F8552000F0F3F8FFF7EDFE962021
:100A100000F04AFFFFF7F0FE7E2000F0E9F8B62074
:100A200000F0E6F8FFF7E0FE502000F029FFFFF7A6
:100A3000E3FE802000F0DCF8552000F0D9F85520C6
:100A400000F0D6F8FFF7D0FE962000F02DFFFFF75C
:100A5000D3FE802000F0CCF8552000F0C9F85520D6
:100A600000F0C6F80446FFF7BFFE962000F01CFF1A
:100A70001E2C2FD1002700BFFFF7BEFE07EB47005B
:100A80000AEB00061AF800507478284600F0B0F817
:100A9000204600F0ADF8FFF7A7FE962000F004FF17
:100AA000FFF7AAFE45F0800000F0A2F8552000F004
:100AB0009FF8552000F09CF80546FFF795FE96201C
:100AC00000F0F2FEA54209D10137062FD4D14FF034
:100AD000000905E04FF0FF0902E000BF96F8029020
:100AE000FFF79AFE802000F083F8552000F080F890
:100AF000FFF78AFE962000F0D7FEFFF78DFE8020DC
:100B000000F076F8552000F073F8FFF77DFE962090
:100B100000F0CAFEFFF780FE142000F069F8B6204E
:100B200000F066F8FFF770FE502000F0A9FEFFF716
:100B300073FE802000F05CF8552000F059F8FFF7B4
:100B400063FE962000F0B0FEFFF766FE802000F006
:100B50004FF8552000F04CF80446FFF755FE96205C
:100B600000F0A2FE0F2C7FF429AF0027FFF754FE00
:100B700007EB47000BEB00061BF800507478284683
:100B800000F036F8204600F033F8FFF73DFE9620DF
:100B900000F08AFEFFF740FE45F0800000F028F8E4
:100BA000552000F025F80546FFF72EFE962000F0B0
:100BB0007BFEA54204D10137062FD7D10020FEE6E7
:100BC000B078FCE640F250704EF2D151C2F20040D3
:100BD000C3F678314FF68F42C16249F2B021CBF6AD
:100BE0006432C3F6C001C0E90C2101B0BDE8F08F4A
:100BF00080B582B08DF8070000208DF8060043F222
:100C00004C30C2F200400DF107010DF10602012344
:100C10004FF0640CCDF800C008F03EF99DF80600D6
:100C200002B080BD00000000FEE7000000000000F0
:100C3000F0B589B000284FF0000469D0054641F6B0
:100C40001870C2F200400178082961D801EB011642
:100C500041F61C77C2F20047013107EB86040170B0
:100C600044212046FFF7D3FC6968A162AA68626349
:100C7000082284F8382061600021C4E9042142F68A
:100C800088422868C2F2004247F82600904202914A
:100C9000C4E90211C4E90611C4E90811CDE907113C
:100CA000CDE90511CDE90311019112D042F6285189
:100CB000C2F20041884213D042F6C851C2F200414C
:100CC000884219D142F24A5340210122C2F2004324
:100CD0000CE042F2485340210122C2F2004305E0F9
:100CE00042F2495341210222C2F200431F7804928A
:100CF00002977E1C1E70E162022103910021019186
:100D0000CDE9051101A904F057F908B101F090F9F6
:100D1000204609B0F0BD00002DE9F04F8BB005462C
:100D20000020009028460C4604F0CAF900285AD04A
:100D300043F26E6643F26C6742F28019C2F20046DB
:100D40004FF01B0BC2F20047C2F20049EA462CE00A
:100D50003078214601AA00EB800009EB800000F109
:100D60000C03284604F0B8F9307800EB800049F80D
:100D70002050307800EB800009EB8000446001983F
:100D8000317801EB810109EB8101886040F6BC20DC
:100D9000C2F2004086F800805146006811F038FA2F
:100DA0002846214604F08CF9E8B1307844F25F21FE
:100DB000C0F67B110130A0FB011202FB1B08387842
:100DC0008045C5D1387840F67C1101304143090C8B
:100DD00001FB1B0043F26461C2F2004138700868F5
:100DE00001300860B4E7009850B14EF604504FF05F
:100DF0008051CEF200000160BFF34F8FBFF36F8FC1
:100E00000BB0BDE8F08F00002DE9F04F81B010F07D
:100E100057FF43F26C6943F26E6BC2F20049C2F2B3
:100E2000004B99F800009BF80010884204D101B0F3
:100E3000BDE8F04F10F06CBF42F2801C41F6187E06
:100E400041F61C76C2F2004CC2F2004E40F67C1A0B
:100E50004FF01B08C2F2004610E000BF99F80000F6
:100E6000013000FB0AF1090C01FB180089F80000B1
:100E700099F800009BF800108842D8D099F800102B
:100E80009EF800000028E9D001EB8101002500EB6D
:100E900000100CEB810183000A6802E04435AB428C
:100EA000DCD070599042F9D170198C68476BA74219
:100EB000F4D1C76A4C68A742F0D1C26B0823002A5C
:100EC00080F8383001F10C010163C7D064467546E3
:100ED0009047AE46A446C1E7B0B52DED028BB0EE0B
:100EE000408A0C46054600F00FFD00EE100AB8EEF1
:100EF000400A38EE008A00BF286804F0B1F970B9E2
:100F000000F002FD00EE100AB8EE400AB4EE408A8E
:100F1000F1EE10FAF0DA0220BDEC028BB0BD55F80C
:100F2000040B29462246BDEC028BBDE8B04003F01D
:100F3000D7BF000000000000002070470000000044
:100F4000002070470000000010B542F2545441F2F6
:100F5000F861C2F20044C2F20041002220460DF0C6
:100F600067FF40F6F8612046C2F200410DF050FFE5
:100F7000002010BD00000000B0B5044601F018F8D4
:100F800042F254552146C2F2004528460DF040FF7A
:100F900028460DF019FF0020B0BD00000000000041
:100FA00000207047000000002DE9F04381B00D469D
:100FB000814619B342F254582C46C2F20048D8F880
:100FC000BC62A7B24046FA2F494628BFFA273A46E4
:100FD0000DF02EFF40460DF0A3FFE41B04F020FFB0
:100FE000074600BFD6F8140230B104F019FFC01B49
:100FF0001428F7D911E000BF2004E2D142F2545680
:101000004946C2F200462A4630460DF011FF3046EE
:1010100001B0BDE8F0430DF083BF012001B0BDE891
:10102000F08300000000000080B500F06DFC41F688
:101030000071C2F20041CA68801A0022B0F5FA7F3E
:1010400098BF01220A7480BDF0B581B042F6884491
:101050000221C2F200440222012320460127009708
:1010600003F0EEFF42F628550221C2F200450222AB
:1010700001232846009703F0E3FF42F6C8560221F9
:10108000C2F20046022201233046009703F0D8FF47
:1010900001210122204603F05FFF022101222846A0
:1010A00003F05AFF01210122304603F055FF20468C
:1010B00004F046FD284604F043FD304604F040FDB0
:1010C00001210122204603F0CFFE102101222846F3
:1010D00003F0CAFE01210122304601B0BDE8F04014
:1010E00003F0C2BE0000000080B582B0B2EE040A78
:1010F0000021CDE9001100686946FFF7EDFE02B05E
:1011000080BD000000000000F0B581B040F2B07476
:10111000C2F200442078B8B142F2A0300026C2F2F8
:101120000040A0F1300500BFEF6D00F0EDFB381A74
:10113000013633284FF0000038BF012085F85A00EF
:10114000303520788642EFD301B0F0BD00000000BA
:1011500080B584B00022CDE9002290F82A30012B1E
:1011600018D10A8800684B88B2EE040A12BA120C31
:10117000ADF800201BBA8A88C9881B0CADF8023074
:1011800012BA09BA120CADF80420090CADF8061019
:10119000694605E0B2EE040A006802A9CDE9022220
:1011A000FFF79AFE04B080BD70B5044600284FF0EA
:1011B00000002DD040F2B075C2F200452A78042A12
:1011C00088BF70BD00F0A0FB297842F2A036C2F2C1
:1011D000004601EB410106EB0111C862002081F8D5
:1011E0002A0014F8040B81F829002046FFF720FD9F
:1011F0002A78014602EB42031C0106EB031041F67C
:10120000D9133151C0F60003C1E90F30511C2970C8
:1012100070BD00000000000042F63020C2F2004025
:1012200002F0EABB0000000042F69830C2F2004033
:1012300002F0E2BB0000000042F61040C2F20040A3
:1012400002F0DABB0000000042F6A820C2F2004023
:1012500002F0D2BB0000000042F62030C2F2004093
:1012600002F0CABB0000000042F64010C2F200408B
:1012700002F0C2BB0000000042F6B810C2F200400B
:1012800002F0BABB0000000042F6C800C2F2004003
:1012900002F0B2BB0000000040F20F42D0F800C0E4
:1012A000C4F20202944510DC6F22C4F2020294459B
:1012B00020DC3F22C4F20202944536DC1022C4F244
:1012C0000202944554D028224EE040F26F42C4F20C
:1012D000020294451ADC40F23F42C4F202029445F5
:1012E0002ADC40F21042C4F20202944540D040F29F
:1012F000284239E09F22C4F20202944525DC702284
:10130000C4F20202944533D088222DE040F29F427D
:10131000C4F2020294451FDC40F27042C4F20202A1
:10132000944525D040F288421EE04022C4F20202D9
:1013300094451DD0582217E040F24042C4F2020208
:10134000944515D040F258420EE0A022C4F20202A9
:1013500094450DD0B82207E040F2B842C4F2020230
:10136000944505D040F2A042C4F20202944517D140
:101370000CF0F8024AF6AB23103ACAF6AA23A2FBF5
:10138000033109A35F2AC1F302115B5C40F2FF3114
:101390002CEA0101C36588BF0431816508467047A6
:1013A0002CF0FF01F9E700BF00061016000610162A
:1013B00070B540F26F44D0F800C0C4F20204D0F817
:1013C00058E0A44519DC9F25C4F20205AC4531DC88
:1013D0005725C4F20205AC4556DC1025C4F20205BF
:1013E000AC4500F092802825C4F20205AC4500F01F
:1013F0008C804025C4F2020584E045F22F45C5F6F5
:101400000205AC452BDC40F2B745C4F20205AC4501
:1014100048DC40F27045C4F20205AC4575D040F29C
:101420008845C4F20205AC456FD040F2A045C4F235
:10143000020567E040F22745C4F20205AC4540DCF6
:10144000A025C4F20205AC455FD0B825C4F2020560
:10145000AC455AD040F21045C4F2020552E045F2C4
:101460006B45C5F60205AC453CDC45F23045C5F69A
:101470000205AC4549D045F24445C5F60205AC45E8
:1014800043D045F258453BE05825C4F20205AC452F
:101490003BD07025C4F20205AC4536D08825C4F295
:1014A00002052FE040F2B845C4F20205AC452CD04D
:1014B00045F20845C5F60205AC4526D045F21C4567
:1014C0001EE040F22845C4F20205AC451DD040F2B2
:1014D0004045C4F20205AC4517D040F25845C4F26D
:1014E00002050FE045F26C45C5F60205AC450CD08F
:1014F00045F29445C5F60205AC4506D045F2804557
:10150000C5F60205AC4540F0CC80456EC66E002E97
:10151000866E6E601CBFD0E91C566E60A44515DC5B
:101520009F24C4F20204A4452BDC5724C4F2020415
:10153000A4454EDC1024C4F20204A44576D028242D
:10154000C4F20204A44571D040246BE045F22F445C
:10155000C5F60204A44527DC40F2B744C4F20204F5
:10156000A44542DC40F27044C4F20204A4455DD0BC
:1015700040F28844C4F20204A44557D040F2A0448B
:1015800050E040F22744C4F20204A4453CDCA0240D
:10159000C4F20204A44549D0B824C4F20204A4450C
:1015A00044D040F210443DE045F26B44C5F60204DD
:1015B000A44553DC45F23044C5F60204A4455FD08F
:1015C00045F24444C5F60204A44559D045F25844B6
:1015D00052E05824C4F20204A44527D07024C4F277
:1015E0000204A44522D088241CE040F2B844C4F28E
:1015F0000204A4451AD045F20844C5F60204A445E5
:101600003ED045F21C4437E040F22844C4F20204C4
:10161000A4450BD040F24044C4F20204A44505D0D6
:1016200040F25844C4F20204A4453AD18468C06D23
:1016300000F01F003F2505FA00F0CEF80800DCF8A6
:101640000000402C20F48020CCF80000CCF80430BE
:1016500023D1CCF80820CCF80C1070BD45F26C44B6
:10166000C5F60204A4450BD045F28044C5F6020439
:10167000A44505D045F29444C5F60204A44510D112
:10168000C46D012504F01F04806805FA04F4CEF847
:1016900004404028CCF80430DBD0CCF80810CCF85B
:1016A0000C2070BD0000000080B582B0B2EE040ACC
:1016B0000021CDE9001140686946FFF70DFC02B03A
:1016C00080BD000000000000F0B581B040F2B174B0
:1016D000C2F200442078C0B142F290400026C2F22B
:1016E0000040A0F15C0500BFD5F8B47000F00CF923
:1016F000381A013633284FF0000038BF012085F832
:10170000B0005C3520788642EED301B0F0BD000019
:101710004278002A18BF704780B584B00022CDE916
:10172000002290F85430012B18D10A8840684B8869
:10173000B2EE040A12BA120CADF800201BBA8A8865
:10174000C9881B0CADF8023012BA09BA120CADF8F8
:101750000420090CADF80610694605E0B2EE040A53
:10176000406802A9CDE90222FFF7B6FB04B0BDE84C
:101770008040704700000000014600284FF0000044
:1017800031D0F0B581B040F2B174C2F20044227899
:10179000012A25D85C2542F2904602FB05F0C2F2F0
:1017A00000460A780F46325400F0AEF8217811FB5B
:1017B0000561886578784870381DFFF739FA227816
:1017C000014612FB05631846596041F6D123C0F665
:1017D0000003C1E90F30002180F85410511C217022
:1017E00001B0BDE8F040704770B500F08DF840F2F0
:1017F000B4740126C2F20044E16E401A652815D384
:10180000A56E0821286A006806620026016202218E
:10181000016228462E760AF06BFC2A8E0146284685
:101820000DF00AF968212046FEF7F1FE84F8716098
:1018300070BD00000000000010B540F2B4747421C7
:10184000C2F200442046FEF7E2FE002084F8700059
:1018500084F8710000F058F8E06640F29000C2F29F
:1018600000400CF061FE41F69141A066C0F6000117
:101870008162446368212046FEF7C9FE10BD000066
:1018800041F2040140F29873CEF20001C2F200432B
:101890000A681B6858434FF47A7358430B689B1AC5
:1018A0008342FBD37047000041F2040140F2987379
:1018B000CEF20001C2F200430A681B68584300BF21
:1018C0000B689B1A8342FBD37047000000000000A6
:1018D00041F2040140F29072CEF20001C2F20042E5
:1018E000B7EE001A096892ED000A0268B8EE400AE5
:1018F0008A1A016002EE102A81EE000AB8EE422A2E
:1019000020EE020A7047000041F2040C40F29C7184
:10191000CEF2000CC2F20041DCF800200B689A42C3
:1019200040F2A073C2F2004302D21868013018607E
:1019300080B50A6040F29472C2F200421968DCF885
:10194000000000231268FEF76BFD80BD0000000060
:1019500044F24021C0F20F01484340F29071C2F2BC
:10196000004108604DF68361C4F21B31A0FB0112F7
:1019700044F6D351C1F26201A0FB010140F298701C
:10198000C2F20040920C0260880940F29471C2F2E7
:10199000004108604EF6FC50CEF20000016841F0B4
:1019A0008071016041F200000021CEF20000416030
:1019B000026842F00102026040F29C724068C2F28A
:1019C0000042106040F2A070C2F200400160704717
:1019D0007047000000000000B0B5056B046CFFF715
:1019E00093FFE062012084F82A006189A181A8792F
:1019F00084F82400288803BA180C60816A88C1EB37
:101A000013410BB2B3F57A6F12BA4FEA1242E28079
:101A1000AD8829BA4FEA1141A18002DD2589013D37
:101A2000258113F57A6F02DA23890133238112B2FB
:101A30009FED221A00EE102A9FED223A0AB202EE22
:101A4000102AB4F90820B8EEC00AB8EEC22A20EE77
:101A5000010A94ED071A22EE032A9FED193AA1EE2E
:101A6000030A94ED081A9FED183AA1EE032A01EE3D
:101A7000100A00EB4230206184ED070A9FED130A43
:101A800084ED082A02EE100AB8EE411A47F23150EE
:101A9000081A41F29E5180B2B8EEC22A21EE001A15
:101AA000884284ED051A22EE000A84ED060A88BFFA
:101AB000B0BD002084F82A00B0BD00BF6666663F56
:101AC000D0CCCC3D3333733FD0CC4C3D0000343DC3
:101AD000B0B5056B046CFFF717FFA065012084F813
:101AE0005400607800287AD1A38E9FED611AE387B5
:101AF0009FED602A29880ABA4FEA124EA4F834E012
:101B00006988C9BA00EE101AB8EEC00A20EE010AC0
:101B1000BDEEC01A11EE101A2187A988C9BA00EECD
:101B2000101AC3EB12410BB2B8EEC00AB3F57A6FCC
:101B300080EE020ABDEEC00A10EE10CAA4F836C04C
:101B4000A97984F83A1002DDA18F0139A18713F534
:101B50007A6F02DAA18F0131A187B8EEC11A9FED29
:101B6000462AB4F93C10B8EEC00A9FED443A41F25F
:101B70009E5221EE021A94ED132A0EEB41319FED95
:101B8000414A05EE101A2164A2EE031A9FED3C2A89
:101B900003EE10EA20EE020A94ED142AB8EEC55ABC
:101BA00047F2315184ED131AB8EE433AACEB010120
:101BB00089B2A2EE040A9FED342A914223EE023A42
:101BC00025EE022A84ED113A84ED122A84ED140ADE
:101BD00002D8002184F85410002808BFB0BD28782E
:101BE000D4ED020A00F00F00606128780009207629
:101BF000B5F8010000BA000C6083E9782A79090180
:101C000041EA1211A18329796A7901F00F0142EAB0
:101C10000121E183A97900EE101AB8EE400A84EDA3
:101C20000B0AB1EE600AE97901EE101A1021B8EE44
:101C3000411A84ED0C1A0FF03BFFD4ED030A84ED3A
:101C4000080AB1EE601AA08B0C21B0EE410A0FF029
:101C50002FFFD4ED040A84ED090AB1EE601AE08B7F
:101C60000C21B0EE410A0FF023FF84ED0A0AB0BD4B
:101C70000AD7233C00007A446666663FD0CCCC3D50
:101C80003333733FD0CC4C3D0000343D00000000A6
:101C90002DE9F041476BB86E0AF09EFA002800F07B
:101CA000A3800646FFF730FE40F2B4740546C2F248
:101CB0000044D4F86C80FFF727FEE066207CA07417
:101CC000E08AA082307833797178B27861F30A20A3
:101CD00020807078C00862F34A106080B078F17894
:101CE000890041EA901063F38A20A08030797179ED
:101CF000400861F3CA10E080707980092072707921
:101D0000C0F301106072F08860813089A081708911
:101D1000E081307B2074707B6074207C002840F66A
:101D20002800C2F200400AD00188013101808AB245
:101D3000B2F5FA7F05D3012084F8480001E00021C4
:101D40000180607C002840F62A00C2F200400AD0E0
:101D50000188013101808AB2B2F5FA7F05D30120F2
:101D600084F8490001E000210180F089E082207AB6
:101D7000012805D0207A032802D0207A022826D113
:101D8000607A012805D0607A032802D0607A0228A0
:101D90001DD1208840F29461884218D82088B0F57F
:101DA000B67F14D36088884211D86088B0F5B67FBA
:101DB0000DD3A08888420AD8A088B0F5B67F06D394
:101DC000E088884203D8E08880085A2811D801208A
:101DD00084F8700068212046FEF719FC43F23C505D
:101DE000C2F2004007F024FDB86EBDE8F0410AF0F1
:101DF000B7B9002084F8700020889FED6B1AB7EE09
:101E0000002ABFEE003AA0F5806000EE100AB8EE9E
:101E1000C00A80EE010A80FE420A80FE030A84EDB9
:101E2000160A6088A0F5806000EE100AB8EEC00ABD
:101E300080EE010A80FE420A80FE030A84ED170A42
:101E4000A088A0F5806000EE100AB8EEC00A80EE0F
:101E5000010A80FE420A80FE030A84ED180AE08827
:101E6000A0F5806000EE100AB8EEC00A80EE010A0C
:101E70009FED4E1A80FE420A80FE030A84ED190A85
:101E8000B4F90A0000EE100AB8EEC00A80EE010AAA
:101E9000BDEEC00A10EE100A6081B4F90C0000EE2D
:101EA000100AB8EEC00A80EE010ABDEEC00A10EEBC
:101EB000100AA081B4F90E0000EE100AB8EEC00AB4
:101EC00080EE010ABDEEC00A10EE100AE081B4F9FE
:101ED0000A00002805DCB4F90A0000285CBF0020D5
:101EE0006081B4F90C00002805DCB4F90C0000286E
:101EF0005CBF0020A081B4F90E000028A5EB08000B
:101F000005DCB4F90E1000295CBF0021E181A0F1CD
:101F1000650111F15C0F1ED84FF47A71B4F90A20F3
:101F2000484300FB02F100EE101AB8EEC00A84ED3F
:101F3000130AB4F90C10414300EE101AB8EEC00AAF
:101F400084ED140AB4F90E10484300EE100AB8EEFE
:101F5000C00A84ED150A0120002104E0013140008F
:101F600010293FF441AF01F00E02042AF6D0E28AB4
:101F700002401204F2D0A28A02401204EED162188A
:101F8000137E01331376E38A9B0604D592F828303A
:101F9000013382F82830E38ADB06DFD592F8383047
:101FA000013382F83830D9E70000254400FEFF46AF
:101FB000F0B581B040F69C070546C2F200470C46DA
:101FC00007F1540630460AF093F822682946FEF7D6
:101FD0009FFA30460AF0E0F82068B864FFF794FCF6
:101FE00040F6D0213865C2F20041002087F84C004D
:101FF00000900868694610F00BF9009850B14EF651
:1020000004504FF08051CEF200000160BFF34F8FBB
:10201000BFF36F8F01B0F0BD80B54FF4806003F067
:1020200017FE4FF48050BDE8804003F011BE000061
:10203000EFF3108072B600BFFEE700000000000062
:1020400044F60C00C5F60200016841F0020101608F
:1020500050F8081C8904FBD5704700000000000000
:1020600042F68840C2F2004003F006B900000000CA
:1020700042F68840C2F2004003F0FEB800000000C3
:1020800042F62850C2F2004003F0F6B8000000000B
:1020900042F62850C2F2004003F0EEB80000000003
:1020A00042F6C850C2F2004003F0E6B8000000005B
:1020B00042F6C850C2F2004003F0DEB80000000053
:1020C000F0B5D1E900C4D1F808E00D692CB14EEAB1
:1020D0000C04254345F0804C03E045EA8C4444EA77
:1020E0000E0C856ED0F88470D1E907466B438D697C
:1020F00044EA0660D1F814E0CC68054307EB83009E
:1021000045EA0E0647F823C046EA04434360CB681D
:10211000002B08BFF0BD43F69C0C083001320023B1
:10212000C0F6010CD71857F8017CC750CF680433AC
:102130001CF80770BB42F5D3F0BD000000000000A2
:10214000B0B541F61475C2F200452868C0070DD03D
:1021500042F68844C2F20044204603F00DFD2046BA
:1021600003F0EEFC286820F0010028602868800752
:102170000DD542F62854C2F20044204603F0FCFC80
:10218000204603F0DDFC286820F002002860286863
:10219000400758BFB0BD42F6C854C2F200442046C2
:1021A00003F0EAFC204603F0CBFC286820F0040092
:1021B0002860B0BD0000000010B52DED028B044674
:1021C0002C30B0EE408AFFF783FB94ED031A84EDC8
:1021D0000A0A38EE411A94ED013A84ED048A84ED3E
:1021E000038A81EE002A94ED071A84ED052A84ED16
:1021F000072A32EE414A22EE031A94ED003A84EEA9
:10220000004A94ED020AA8EE031A84ED064AA4EEF1
:10221000001A84ED081AB0EE410ABDEC028B10BD25
:102220002DE9F04182B043F65C4440F29C08C2F2D2
:102230000044C2F20048DFED2B0A00216068CDE9BE
:10224000001190ED070A404608F0DAFFA06840F25E
:10225000E405C2F20045DFED240A90ED070A2846A6
:1022600008F0CEFFE06840F22C16C2F20046DFED27
:102270001F0A90ED070A304608F0C2FF206940F2BD
:102280007417C2F20047DFED1A0A90ED070A3846CC
:1022900008F0B6FF98ED0F0A95ED0F1ABDEEC00AD3
:1022A00096ED0F2ABDEEC11A97ED0F3ABDEEC22A88
:1022B000694610EE100ABDEEC33AADF8000011EE0B
:1022C000100AADF8020012EE100AADF8040013EE89
:1022D000100AADF806006068FEF73AFF02B0BDE8EC
:1022E000F08100BF00406745004067C500007A45A7
:1022F00000007AC500000000F0B583B041F6007020
:102300009FEDD91AC2F2004043F6304640F2BC14A9
:10231000C2F20046B0F90400C2F2004400EE100A16
:102320002046B8EEC00A80EE010A86ED020AFFF7E9
:1023300043FF7078022809D0A8B940F64001C2F2E4
:1023400000418A68726191ED000A3EE040F69C010E
:10235000C2F2004191F8282091F84C30002B18BFB0
:10236000002A40F05D81317840F2B472C2F200423E
:1023700049B1012917D102F150014C329FEDC00A39
:102380009FEDC01A06E002F15C0158329FEDB90AD8
:102390009FEDB91A92ED002A22EE011A91ED002A62
:1023A00022EE000A03E09FEDB51AB0EE410A94ED6B
:1023B000082A96ED053A31EE021A96ED042A30EE1F
:1023C000020A33EE011A86ED051A9FEDAF1A86ED6B
:1023D000040AB4EE410AF1EE10FA04DD86ED041AA7
:1023E00004280BD90FE0B9EE081AB4EE410AF1EE59
:1023F00010FAB8BF86ED041A042804D8DFE800F00C
:1024000003A58E2D9F0042F24C54C2F20044606836
:10241000FFF74AF92068FFF747F940F25064C2F22B
:102420000044204609F028F840F29C25C2F20045FD
:10243000284609F021F804F1480009F01DF805F1DB
:10244000480009F019F840F64000C2F20040016867
:102450008068C6E9041003B0F0BD42F24C509FED15
:102460008B1AC2F200409FED8B2A9FED8B3A41F60A
:10247000C86740689FED894A9FED895A006C00EE5D
:10248000100AA0F6C461A0F2C262431EC01B40F64F
:102490000307B8EEC00AB94240F2C26131EE401AF9
:1024A00032EE402A33EE403A34EE404AB0EEC11AE2
:1024B000B0EEC22A35EE400A9FED755AB0EEC33A2F
:1024C000B0EEC44A81EE051A82EE052AB0EEC00ACB
:1024D00038BFB0EE421A83EE052ABA4284EE053ABE
:1024E00038BFB0EE421A80EE050A8B4238BFB0EE1C
:1024F000431AB0F59C7F38BFB0EE401A9FED690AD1
:1025000021EE000A0EF0EAF99FED671A00209FED18
:10251000672AA0EE012A86ED032A11E040F69C000E
:102520009FED631AC2F20040D0F8410000EE100A9D
:10253000B4EE410AF1EE10FA01DA012000E00020C9
:1025400003B0BDE8F04008F0E3BD40F2A475C2F26C
:10255000004528783C2832D842F24C5740F2C0540B
:10256000C2F20047C2F20044DFED520A7868818E61
:1025700090ED131A204600EE101AB8EE400A08F04B
:10258000EFFE7868D4ED0E0A40F25064C2F20044C7
:1025900090ED130A204608F033FE94ED0F0A002058
:1025A000BDEEC00A6946CDE9000010EE100AADF894
:1025B00002007868FFF7ACF828780130287042F202
:1025C0004C50F178C2F2004040F2480401293AA18F
:1025D0004068C2F20044808E08BF043100EE100A49
:1025E00096ED021AD1ED000A2046B8EE400A08F036
:1025F000B7FED4ED0E0A40F20004C2F2004496ED9C
:10260000020A204608F0FCFD94ED0F0ADFED2C0ACB
:102610009FED2C1A0EF0FCFC86ED030A03B0F0BD12
:10262000D1F8292000EE102A40F64002C2F2004202
:1026300092ED011A30EE410A9FED0C1AB4EE410AF8
:10264000F1EE10FA05DB9FED0A1AB4EE410AF1EE45
:1026500010FAD1F82D1092ED001A00EE101A9168C0
:10266000716130EE010AB0E600004843000070C31B
:1026700000007043A69B443B0AD7A33B0000000028
:10268000CDCCCCBDCDCCCC3D000028420038D645C9
:102690001F2900450028964500302C45004058442D
:1026A0000020FB45DB0F494063141D45D7710945E8
:1026B000CDCC4C3E00A01C450050CE4500A01C4592
:1026C00000007A4500007AC510B590B01EA01E49E2
:1026D0000891D0E901120991C1680A9202690B912F
:1026E00041690C928269C0690D91CDE90E201EA04E
:1026F0001D4900914168019181680291C16803916F
:10270000016904914169059181690691C069079049
:102710006846FFF731F842F24C54C2F200442060A0
:1027200008A8FFF729F8606043F63040C2F2004085
:102730000021417040F64001C2F200410A688968F8
:10274000C0E9042110B010BD00000000C82D002415
:10275000FE03000002030000000000000000000073
:10276000000000000000000002000000C82D00244E
:10277000FE03000001030000000000000000000054
:10278000000000000000000090F85C20012A01D148
:102790000220704770B582B042F20835012280F8FD
:1027A0005C2000230193C4F202050093A5F5427456
:1027B0000368A34228D14FF6006CCFF6FF7C55F892
:1027C0000C409A68224352071ED4D1F800E02A68D0
:1027D000BEF1000F22F4404423D043F4807242F251
:1027E0000013C4F202034E689A4244EA06022A60C9
:1027F0002BD14FF60052CFF6FF72AA5855F80C3085
:102800001343DA073FD127E0016E41F02001016652
:102810000121002280F85C2002B0BDE8704008462B
:10282000704742F2001243F48071C4F202022C603D
:1028300091421AD14FF60051CFF6FF71695855F801
:102840000C201143C9071ED116E046F20802C5F656
:1028500002021368DA0716D12A6840F61F739A43FA
:102860008968114341EA0E010AE046F20801C5F603
:1028700002010968C90706D1296840F61F72914311
:1028800029600021C5E70021C3E700000000000027
:102890002DE9F04181B00022009290F85C20012ADD
:1028A00001D10221C5E20268012380F85C309368FF
:1028B0005B0700F1B68246F2083C4FF6FF78C5F69A
:1028C000020CC0F20F08ACF5427E0B68724512D0C4
:1028D000002B10D493FAA3F413EA080FB4FA84F48B
:1028E0004FF0010508BF9C0E04F01F0405FA04F424
:1028F000D5692C43D4614C681F26C3F38463C4F3A9
:10290000012504F01F04A64002EB8505A3402F6BB0
:1029100027EA060633432B639368946803F00403A5
:1029200004F008041B1940F006810B6807268D6827
:102930007245C3F34064C3F3045302EB840406FA04
:1029400003F6676905FA03F327EA060643EA060376
:1029500063610FD041F20003C5F600431B6803F02A
:102960007043B3F1805F10D14B69D4680E2505EA3E
:10297000540416E04FF604544B69CFF6FF74062555
:102980005CF8044005EA94040BE0D4684B69D56810
:10299000E4064FEA550502D405F00E0401E005F007
:1029A00008040E6903FA04F5042E24D1724530D0D0
:1029B000136E0C6803F0F845A3069D4203D1146E14
:1029C00024F000441466546E04F0F8449C4203D191
:1029D000546E24F000445466946E04F0F8449C4213
:1029E00003D1946E24F000449466D46E04F0F8444D
:1029F0009C425FD09FE002F160030F68724507F0D0
:102A0000F84753F826405AD004F000443C4425438C
:102A100059E04FF65853CFF6FF735CF80330136E4E
:102A20000C68C3F3846314EA080F94FAA4F5B5FAAA
:102A300085F508BFC4F38465AB4203D1136E23F060
:102A400000431366536E536E0C6814EA080F94FA31
:102A5000A4F5B5FA85F508BFC4F38465C3F38463B0
:102A6000AB4203D1536E23F000435366936E936ED3
:102A70000C6814EA080F94FAA4F5B5FA85F508BFB6
:102A8000C4F38465C3F38463AB4203D1936E23F034
:102A900000439366D36ED36E0C6814EA080F94FA61
:102AA000A4F5B5FA85F508BFC4F38465C3F3846360
:102AB000AB4240D1D36E23F00043D3663BE045EAFE
:102AC000070444F0004543F8265072450D691BD0B9
:102AD00091F821400E7E53F8257027F00047012C15
:102AE00008BF07F10047741EB4FA84F443F8257058
:102AF00063090C69DB02156904F01F0425F4F04535
:102B0000A3402B43136116E0ACF52A72CB6952F84F
:102B1000254024F08074234342F825300B6991F856
:102B2000204052F82350012C25F0007508BF05F114
:102B3000007542F8235002689368DB0740F02C814F
:102B40000B68CD68724503EA080105F018060BD042
:102B5000D2F8C04028FA06F624EA010106EA030486
:102B60002143C2F8C0100DE04FF6A85428FA06F62B
:102B7000CFF6FF741E405CF8047027EA0101314370
:102B80004CF804100021C4F2527101F52D04A54245
:102B900040F0FF8046F20004C5F60204A2423FD096
:102BA00042F20014C4F20204A24224D042F2000411
:102BB000C4F20204A2424CD11F24C1F2F044A34249
:102BC0001EDD40F2FF74C2F63064A34249DD40F6D8
:102BD0000004C2F63064A34200F0AC8041F200046D
:102BE000C3F26024A3427CD00024C4F22134A34267
:102BF00000F0BA80A3E01F21C1F2F0418B422ADC31
:102C00000721C0F690418B424DDC0221C0F23041D9
:102C10008B4253D00421C0F660018B4215D08EE068
:102C20001F21C1F2F0418B4227DC0721C0F6904101
:102C30008B425BDC0221C0F230418B423ED004214A
:102C4000C0F660018B4240F084804021C1F6201123
:102C50008AE0002188E040F2FF71C2F630618B42C9
:102C600033DC2021C1F2F0418B4229D040F20041F7
:102C7000C2F600218B4211D061E040F2FF71C2F632
:102C800030618B4245DC2021C1F2F0418B4217D0EC
:102C900040F20041C2F600218B425AD140F60001B9
:102CA000C2F6306160E00821C0F690418B422CD022
:102CB0001021C1F2C0018B4222D040E0012153E03B
:102CC00040F20021C2F2B0514EE040F60001C2F6DF
:102CD00030618B422ED041F20001C3F260218B4261
:102CE0002DD142F20001C3F290613DE00821C0F60F
:102CF00090418B4209D01021C1F2C0018B4228D1F2
:102D000040F20011C2F280112EE08021C1F6505134
:102D10002AE040F60001C2F630618B420AD042F24E
:102D20000001C3F290618B4213D144F20001C3F65B
:102D3000C02119E041F20001C3F2602114E0002437
:102D40000021C4F68434A34204BF0021C4F6B87144
:102D50000AE044F200040021C3F6C024A34204BFE9
:102D600048F20001C3F6F061724512D091FAA1F465
:102D70004FF6C135B4FA84F4C0F20A05294208BFFF
:102D80008C0E04F01F01012404FA01F1D4692143DF
:102D9000D161B3F1FF3F01DD002147E042F20001C4
:102DA00042F20016C4F20201C4F2020601F5807478
:102DB00001F54275A242644608BF2C468A4208BF0C
:102DC0002C4642F48075B542246822D18D68D1F832
:102DD00008112943C90724D1002104F0E075CCF281
:102DE00052718B4208BF14F4000126D00021CCF2AE
:102DF00021318B4249D10021B1EB156F45D172458C
:102E000014D1DCF8001021F0E071294341F0807109
:102E10004EE04FF60051CFF6FF715CF80110C90784
:102E2000DAD0016E41F0200101660121002280F814
:102E30005C20084601B0BDE8F0817245ACD1DCF8F9
:102E4000001042F6635221F0E071C0F23E52294375
:102E500041F40001CCF8001040F2BC31C2F2004154
:102E600009688909A1FB02129109022202EB4101C2
:102E70000091009900298FD00099013900910099A3
:102E800000294FF00001F7D1D0E772454FF0000163
:102E9000CCD10022CCF68432934208BF14F48002D5
:102EA000C4D1DCF8001021F0E071294341F4800125
:102EB000CCF8001070E70000B0B582B000284FF0E9
:102EC0000001019141D0016E39B9044600F034F996
:102ED00020460021616684F85C1001688A689200CF
:102EE0004FF6C072C5F6FF7202D58B6813408B6037
:102EF0008B68DB001CD48B6802F180521A4042F6CA
:102F0000635342F080528A6040F2BC32C0F23E53BA
:102F1000C2F2004212689209A2FB0323012202EBD3
:102F2000931200BF0192019A12B1019A013AF9E796
:102F30008A68D2000BD4026E012442F010020266AD
:102F4000426E42F00102426602E00124EFE00024FA
:102F50008A68036E03F0100302F00402D218026EB6
:102F600036D122F4817246F2000C023202668A687F
:102F7000C5F6020CD20722D142F2001341F480724E
:102F8000C4F202039A4242F20002C4F202022DD1BC
:102F90009368D2F808512B43DB0710D102F58073F8
:102FA0009942634608BF1346914208BF0B464268E8
:102FB000D3F8085325F47C152A43C3F80823427E2E
:102FC000C36B614543EA423306D082681A431BE073
:102FD00042F010010124A9E0D0E90225082A0CD012
:102FE0000C2A08D01C2A0AD110220BE0DCF8083089
:102FF000DB07D3D0E3E7082204E0002202E0182A2E
:1030000018BF00222A431A4390F82030012B42EACD
:10301000034306D1426A0025CFF6FE7505EB424216
:103020001343826A22B102F47872C56A2A431343B9
:10303000614508D04CF20305CA68CFF6F0752A4006
:103040001A43CA600EE044F20705DCF80C20CFF604
:10305000F0752A401A43CA600A69436B22F0406245
:103060001A430A618A688B6802F0040203F00803BD
:10307000D2184CD1027E61454FEA823202D0036BF6
:103080001A4303E090F8383042EA4302CB6844F236
:103090000305AB431A43CA6090F84420012A17D1B4
:1030A0004FF61E026145CFF6004215D00B6903EAC8
:1030B000020E0122D0E91235CFF6FF7202EB034275
:1030C00045EA0E03056D1A43436D2A431A4310E087
:1030D0000A6922F001020CE0DCF810301A40D0E955
:1030E00012351A43036D2A43456D1A432A4342F0B1
:1030F00001020A6161450A69036C22F0704242EAEA
:1031000003020A6103D00546FDF7F6FA2846016876
:1031100002690B6B012A23F00F0202D1C369013B44
:103120001A430A630122016E62F30101016620461F
:1031300002B0B0BD0000000070B5B6B0044602A8F1
:10314000B8210025CDE93455CDE932553195FDF74B
:103150005EFA42F200012068C4F20201884201D006
:1031600036B070BD4FF4002002904FF400302A902A
:1031700002A8039504F084F908B1FEF759FF44F260
:10318000D8400026C5F60200016841F02001016028
:10319000016801F0200101910199816841F0040169
:1031A0008160806831A900F004000190019810202E
:1031B00031900320329040F60000C5F602003396AD
:1031C00002F052FD42F6C80540F28840C2F20045C6
:1031D000C4F2020028600920C5E901064FF48060AE
:1031E00028614FF4006068614FF40050A8614FF40B
:1031F0008070EE60C5E9070628466E6201F03CF972
:1032000008B1FEF715FFA565AC6336B070BD0000D0
:10321000C0B190F8211049B910B5002180F82010F4
:10322000044600F011F82046BDE81040002141623C
:10323000C0E90111C0E903114161012280F8212098
:10324000084670470120704744F200410068C4F608
:103250000201884218BF704781B044F2DC40C5F6D5
:103260000200016841F400310160006800F40030A0
:103270000090009801B070472DE9F041044602F03B
:10328000CFFD14B3054694F83500022820D140F252
:103290000F472668C4F2020740F26F48BE426FF043
:1032A0000E00C4F2020817DC6F21C4F202018E4244
:1032B00023DC3F21C4F202018E4239DC1021C4F22A
:1032C00002018E4258D0282151E00120BDE8F08152
:1032D00080206065012037E246451ADC40F23F411C
:1032E000C4F202018E422ADC40F21041C4F2020113
:1032F0008E4241D040F2284139E09F21C4F20201C0
:103300008E4225DC7021C4F202018E4234D0882125
:103310002DE040F29F41C4F202018E421FDC40F2D8
:103320007041C4F202018E4226D040F288411EE074
:103330004021C4F202018E421ED0582117E040F213
:103340004041C4F202018E4216D040F258410EE0D4
:10335000A021C4F202018E420ED0B82107E040F253
:10336000B841C4F202018E4206D040F2A041C4F23C
:1033700002018E42314607D13146306820F01E00EE
:1033800041F8140B6FF080000A68464500EA02001D
:10339000086019DC9F20C4F20200864231DC57200D
:1033A000C4F20200864256DC1020C4F202008642BB
:1033B00000F091802820C4F20200864200F08B8049
:1033C0004020C4F2020084E045F22F40C5F602001E
:1033D00086422BDC40F2B740C4F20200864248DC51
:1033E00040F27040C4F20200864274D040F288403D
:1033F000C4F2020086426ED040F2A040C4F2020045
:1034000067E040F22740C4F20200864240DCA02080
:10341000C4F2020086425ED0B820C4F202008642A6
:1034200059D040F21040C4F2020052E045F26B4025
:10343000C5F6020086423CDC45F23040C5F602008B
:10344000864248D045F24440C5F60200864242D04A
:1034500045F258403BE05820C4F2020086423AD080
:103460007020C4F20200864235D08820C4F20200E7
:103470002FE040F2B840C4F2020086422BD045F261
:103480000840C5F60200864225D045F21C401EE0E9
:1034900040F22840C4F2020086421CD040F2404074
:1034A000C4F20200864216D040F25840C4F2020034
:1034B0000FE045F26C40C5F6020086420BD045F2A3
:1034C0009440C5F60200864205D045F28040C5F61C
:1034D0000200864204D1206E016821F480710160EF
:1034E000306820F0010030603068C0070BD002F077
:1034F00097FC401B0628F7D320206065032084F842
:103500003500012020E120680821B8424FF03F0239
:1035100010DC6F23C4F2020398421CDC3F23C4F288
:103520000203984232DC1023C4F20203984251D0C5
:1035300028234AE040451ADC40F23F43C4F202032C
:1035400098422ADC40F21043C4F20203984241D070
:1035500040F2284339E09F23C4F20203984225DC5D
:103560007023C4F20203984234D088232DE040F245
:103570009F43C4F2020398421FDC40F27043C4F23E
:103580000203984226D040F288431EE04023C4F252
:10359000020398421ED0582317E040F24043C4F281
:1035A0000203984216D040F258430EE0A023C4F222
:1035B000020398420ED0B82307E040F2A043C4F2C1
:1035C0000203984206D040F2B843C4F20203984284
:1035D00040F0BF80D4E9163707F01F07404502FAD4
:1035E00007F25A5019DC9F21C4F20201884231DCF3
:1035F0005721C4F20201884256DC1021C4F20201B4
:10360000884200F091802821C4F20201884200F033
:103610008B804021C4F2020184E045F22F41C5F6BF
:10362000020188422BDC40F2B741C4F20201884219
:1036300048DC40F27041C4F20201884274D040F28A
:103640008841C4F2020188426ED040F2A041C4F227
:10365000020167E040F22741C4F20201884240DCE7
:10366000A021C4F2020188425ED0B821C4F2020156
:10367000884259D040F21041C4F2020152E045F2B2
:103680006B41C5F6020188423CDC45F23041C5F68B
:103690000201884248D045F24441C5F60201884201
:1036A00042D045F258413BE05821C4F20201884221
:1036B0003AD07021C4F20201884235D08821C4F288
:1036C00002012FE040F2B841C4F2020188422BD03F
:1036D00045F20841C5F60201884225D045F21C4159
:1036E0001EE040F22841C4F2020188421CD040F2A0
:1036F0004041C4F20201884216D040F25841C4F25F
:1037000002010FE045F26C41C5F6020188420BD080
:1037100045F29441C5F60201884205D045F2804148
:10372000C5F6020188420BD1616EA26EE06E4A605E
:1037300030B1016821F480710160D4E91C0141605D
:10374000012084F835000020002184F83410BDE801
:10375000F081042101223DE7F0B190F835100229F3
:1037600018D180B540F20F420168C4F202029142C2
:1037700014DC6F23C4F20203994224DC3F23C4F219
:10378000020399423ADC1023C4F20203994258D052
:10379000282352E0802141650120704740F26F43A9
:1037A000C4F2020399421ADC40F23F43C4F202031E
:1037B00099422ADC40F21043C4F20203994240D0FD
:1037C00040F2284339E09F23C4F20203994225DCEA
:1037D0007023C4F20203994233D088232DE040F2D3
:1037E0009F43C4F2020399421FDC40F27043C4F2CB
:1037F0000203994225D040F288431EE04023C4F2E0
:10380000020399421DD0582317E040F24043C4F20E
:103810000203994215D040F258430EE0A023C4F2AF
:10382000020399420DD0B82307E040F2B843C4F236
:103830000203994205D040F2A043C4F20203994228
:103840006ED191424FF0040280F8352010DC6F20D9
:10385000C4F20200814220DC3F20C4F20200814217
:1038600036DC1020C4F20200814253D028204EE002
:1038700040F26F40C4F2020081421ADC40F23F4045
:10388000C4F2020081422ADC40F21040C4F202007D
:1038900081423FD040F2284039E09F20C4F202002C
:1038A000814225DC7020C4F20200814232D088209F
:1038B0002DE040F29F40C4F2020081421FDC40F242
:1038C0007040C4F20200814224D040F288401EE0E1
:1038D0004020C4F2020081421CD0582017E040F280
:1038E0004040C4F20200814214D040F258400EE041
:1038F000A020C4F2020081420CD0B82007E040F2C0
:10390000B840C4F20200814204D040F2A040C4F2A8
:1039100002008142086820F001000860002080BD9C
:103920000A6822F00E020A6045F25742C5F602020A
:1039300091420A6822F001020A600EDC45F22F4231
:10394000C5F60202914217DC45F20842C5F60202B2
:10395000914226D045F21C421FE045F27F42C5F657
:103960000202914211DC45F25842C5F60202914230
:1039700017D045F26C4210E045F23042C5F6020223
:1039800091420ED045F2444207E045F29442C5F61A
:103990000202914205D045F28042C5F602029142F0
:1039A0001AD1D0E9181CD0E916E30A6822F4807213
:1039B0000A6003F01F01012202FA01F1CEF804109F
:1039C000816ECCF80410C16E31B10A6822F48072A5
:1039D0000A60D0E91C124A60012180F83510016D9F
:1039E0000022002980F8342098D08847002080BD2C
:1039F000406D7047000000002DE9F04381B00021C8
:103A0000009140F2BC3148F2B513C2F20041C1F658
:103A10004E33856D40F26F490A680168C4F20209AD
:103A20002E68A2FB032849452B6815DC9F22C4F2AF
:103A3000020291422BDC5722C4F2020291424FDC77
:103A40001022C4F20202914278D02822C4F202026B
:103A5000914273D040226CE045F22F42C5F602023B
:103A6000914227DC40F2B742C4F20202914243DCA9
:103A700040F27042C4F2020291425FD040F28842AA
:103A8000C4F20202914259D040F2A04251E040F209
:103A90002742C4F2020291423DDCA022C4F202029B
:103AA00091424BD0B822C4F20202914246D040F279
:103AB00010423EE045F26B42C5F60202914275DCCF
:103AC00045F23042C5F60202914200F0828045F292
:103AD0004442C5F6020291427BD045F2584273E05F
:103AE0005822C4F20202914228D07022C4F202028B
:103AF000914223D088221CE040F2B842C4F2020274
:103B000091421BD045F20842C5F60202914260D0B4
:103B100045F21C4258E040F22842C4F202029142AF
:103B20000CD040F24042C4F20202914206D040F270
:103B30005842C4F20202914240F02D84C26D082323
:103B400002F01F029340334200F0168140F20F440E
:103B5000C4F20204A1424FF0040413DC6F27C4F244
:103B60000207B94200F391803F27C4F20207B9422D
:103B700000F3D2801027C4F20207B94200F0F080AF
:103B80002827E8E0494500F38C8040F23F47C4F223
:103B90000207B94200F3C78040F21047C4F202079F
:103BA000B94200F0DD8040F22847D4E045F26C4293
:103BB000C5F6020291420CD045F28042C5F60202DF
:103BC000914206D045F29442C5F60202914240F07D
:103BD000E2830E68C26D02F01F02042707FA02F4A6
:103BE0001C4218BF16F004072CD1022707FA02F472
:103BF0001C4218BF16F0020762D1D3401B0740F1E8
:103C0000CA8316F0080300F0C68340F20F43C4F2E3
:103C1000020399426FF01C0300F318836F27C4F26C
:103C20000207B94200F354833F27C4F20207B942A6
:103C300000F3B4831027C4F20207B94200F0D38323
:103C40002827CAE332046C605ED4B20600F1A18377
:103C500040F20F42C4F2020291426FF0080200F3F8
:103C6000E3826F23C4F20203994200F302833F23ED
:103C7000C4F20203994200F347831023C4F2020303
:103C8000994200F0838328237AE39F27C4F2020736
:103C9000B94251DC7027C4F20207B94260D08827CC
:103CA00059E040F29F47C4F20207B9424BDC40F2B0
:103CB0007047C4F20207B94252D040F288474AE046
:103CC00032046C6000F19C82B20600F1CF8340F2B6
:103CD0000F42C4F2020291426FF0140200F3D68246
:103CE0006F23C4F20203994200F315833F23C4F209
:103CF0000203994200F38C831023C4F20203994219
:103D000000F0AB832823A2E3F10300F14283816C2E
:103D1000002940F079833EE34027C4F20207B9420C
:103D20001ED0582717E040F24047C4F20207B942BC
:103D300016D040F258470EE0A027C4F20207B9425D
:103D40000ED0B82707E040F2A047C4F20207B942FC
:103D500006D040F2B847C4F20207B94218BF08249F
:103D60000F68274208D00F6827F004070F60AB6088
:103D7000436D43F0010343650123934033426FD009
:103D800040F20F47C4F20207B94210DC6F27C4F2B9
:103D90000207B9421CDC3F27C4F20207B94232DCF9
:103DA0001027C4F20207B94251D028274AE04945FA
:103DB0001ADC40F23F47C4F20207B9422ADC40F263
:103DC0001047C4F20207B94241D040F2284739E017
:103DD0009F27C4F20207B94225DC7027C4F202070C
:103DE000B94234D088272DE040F29F47C4F2020741
:103DF000B9421FDC40F27047C4F20207B94226D034
:103E000040F288471EE04027C4F20207B9421ED0A4
:103E1000582717E040F24047C4F20207B94216D0D3
:103E200040F258470EE0A027C4F20207B9420ED074
:103E3000B82707E040F2B847C4F20207B94206D0FB
:103E400040F2A047C4F20207B94240F0E1814F6955
:103E500007F0800424B1AB60436D43F00203436577
:103E60000423934033426FD040F20F47C4F202075D
:103E7000B94210DC6F27C4F20207B9421CDC3F27AD
:103E8000C4F20207B94232DC1027C4F20207B94279
:103E900051D028274AE049451ADC40F23F47C4F296
:103EA0000207B9422ADC40F21047C4F20207B942C5
:103EB00041D040F2284739E09F27C4F20207B942B7
:103EC00025DC7027C4F20207B94234D088272DE0E0
:103ED00040F29F47C4F20207B9421FDC40F270472C
:103EE000C4F20207B94226D040F288471EE04027BC
:103EF000C4F20207B9421ED0582717E040F24047EB
:103F0000C4F20207B94216D040F258470EE0A0278B
:103F1000C4F20207B9420ED0B82707E040F2B84712
:103F2000C4F20207B94206D040F2A047C4F2020729
:103F3000B94240F073810F6807F0020424B1AB600E
:103F4000436D43F004034365102303FA02F2324247
:103F50007ED040F20F43C4F2020399424FF00803AF
:103F600010DC6F27C4F20207B9421CDC3F27C4F201
:103F70000207B94232DC1027C4F20207B94251D01D
:103F800028274AE049451ADC40F23F47C4F20207BD
:103F9000B9422ADC40F21047C4F20207B94241D0CC
:103FA00040F2284739E09F27C4F20207B94225DCD6
:103FB0007027C4F20207B94234D088272DE040F2BE
:103FC0009F47C4F20207B9421FDC40F27047C4F2B7
:103FD0000207B94226D040F288471EE04027C4F2CB
:103FE0000207B9421ED0582717E040F24047C4F2FA
:103FF0000207B94216D040F258470EE0A027C4F29B
:104000000207B9420ED0B82707E040F2A047C4F239
:104010000207B94206D040F2B847C4F20207B942DB
:1040200018BF04230F681F4212D0AA600A68520307
:104030000A6806D4D20506D40A6822F008020A608B
:1040400001E0110352D4016C11B1044688472046A7
:10405000C16D01F01F02202101FA02F3334200F08A
:10406000A68040F20F470168C4F202071026B94249
:1040700010DC6F27C4F20207B9421CDC3F27C4F2F0
:104080000207B94236DC1027C4F20207B94255D004
:1040900028274EE049451ADC40F23F47C4F20207A8
:1040A000B9422EDC40F21047C4F20207B94245D0B3
:1040B00040F228473DE09F27C4F20207B94229DCBD
:1040C0007027C4F20207B94238D0882731E040F2A5
:1040D0009F47C4F20207B94223DC40F27047C4F2A2
:1040E0000207B9422AD040F2884722E0816C0029B9
:1040F000ABD1ADE74027C4F20207B9421ED0582722
:1041000017E040F24047C4F20207B94216D040F22D
:1041100058470EE0A027C4F20207B9420ED0B827D4
:1041200007E040F2A047C4F20207B94206D040F2CD
:10413000B847C4F20207B94218BF02260F683742D7
:1041400035D0AB6090F83530042B0B6816D123F0D6
:1041500016030B604B6923F080034B61036C0BB9B2
:10416000836C1BB10B6823F008030B603F21914067
:10417000A960012180F83510016D3FE15A030A68FA
:104180000CD4D2050ED40A6822F010020A60012174
:1041900080F83510002180F8341003E0110301D4B9
:1041A000416C00E0C16B11B1044688472046416D67
:1041B000002900F0F080416DC9071CD0042180F86F
:1041C000351001684FEA98220B6823F001030B6059
:1041D000009B01330093934202D80B68DB07F7D1B1
:1041E0000968C9074FF0030108BF012180F83510A5
:1041F000002180F83410C16C002940F00581CAE02C
:10420000F10300F13381416C002940F0FD80C2E0F0
:1042100000240F68002C7FF41EAE21E600240F68F6
:10422000002C7FF48CAE8FE6494542DC40F23F43E0
:10423000C4F2020399427CDC40F21043C4F2020350
:10424000994200F0A38040F2284399E049454CDCB4
:1042500040F23F47C4F20207B94200F3A68040F2A1
:104260001047C4F20207B94200F0BD8040F228476F
:10427000B3E09F23C4F20203994263DC7023C4F2CB
:104280000203994200F08280882379E0494560DC8E
:1042900040F23F43C4F20203994200F3C08040F26F
:1042A0001043C4F20203994200F0D78040F2284341
:1042B000CDE040F29F43C4F20203994258DC40F241
:1042C0007043C4F20203994260D040F2884357E041
:1042D0009F27C4F20207B94270DC7027C4F20207BC
:1042E000B94200F08080882777E040F29F47C4F20F
:1042F0000207B94269DC40F27047C4F20207B942D2
:1043000071D040F2884768E04023C4F2020399422A
:104310003CD0582334E09F23C4F20203994200F3B7
:1043200087807023C4F20203994200F096808823AC
:104330008DE040F24043C4F20203994226D040F29D
:1043400058431DE0A023C4F2020399421ED0B823B3
:1043500016E040F29F43C4F2020399426FDC40F240
:104360007043C4F20203994277D040F288436EE072
:1043700040F2A043C4F20203994207D040F2B8438E
:10438000C4F20203994218BF6FF004020B681A408E
:104390000A60016CC1BB01B0BDE8F0834027C4F2E4
:1043A0000207B9421FD0582717E040F24047C4F235
:1043B0000207B94217D040F258470EE0A027C4F2D6
:1043C0000207B9420FD0B82707E040F2A047C4F275
:1043D0000207B94207D040F2B847C4F20207B94217
:1043E00018BF6FF00E030F683B400B60012101FA0C
:1043F00002F26A60416580F83510C16C00294FF007
:10440000000280F83420C6D001B0BDE8F043084770
:104410004023C4F2020399421FD0582317E040F210
:104420004043C4F20203994217D040F258430EE0D1
:10443000A023C4F2020399420FD0B82307E040F250
:10444000A043C4F20203994207D040F2B843C4F239
:104450000203994218BF6FF00A020B681A400A6003
:10446000012180F83510002180F83410C16B00293B
:10447000CAD190E7000000002DE9F041044601F0A8
:10448000CFFCECB140F26F4805462068C4F2020848
:10449000404518DC9F21C4F2020188422EDC5721DE
:1044A000C4F20201884254DC1021C4F202018842A5
:1044B0007ED02821C4F20201884279D0402172E0E6
:1044C0000120BDE8F08145F22F41C5F60201884286
:1044D00027DC40F2B741C4F20201884245DC40F2D9
:1044E0007041C4F20201884262D040F28841C4F2B5
:1044F000020188425CD040F2A04154E040F22741E2
:10450000C4F20201884240DCA021C4F202018842C8
:104510004ED0B821C4F20201884249D040F2104185
:1045200041E045F26B41C5F60201884200F3B880D4
:1045300045F23041C5F60201884200F0C38045F2E1
:104540004441C5F60201884200F0BC8045F2584162
:10455000B4E05821C4F20201884229D07021C4F28B
:104560000201884224D088211DE040F2B841C4F203
:10457000020188421CD045F20841C5F6020188427A
:1045800000F0A08045F21C4198E040F22841C4F2BE
:10459000020188420CD040F24041C4F2020188423C
:1045A00006D040F25841C4F20201884240F0CE8069
:1045B000022184F83510002184F83410016821F0BC
:1045C0000101016020680168C9070CD001F028FCD6
:1045D000401B0628F6D320206065032084F83500B0
:1045E0000120BDE8F08148F23F0204F108070168AC
:1045F000CFF61062114066698CCF1143D4F818C011
:104600001943E3693943276A0E43616A3343042936
:1046100043EA070343EA0C0303D1D4E90B7637439B
:104620003B436568A5F12906292E00F2A1800127E8
:10463000DFE806F01515151515159E9E9E9E9E9E8B
:104640009E9E9E9E9E9E9E9E9E9E151515159E9EAE
:104650009E9E15159E9E9E9E9E9E15151515002FBD
:1046600018BF43F4801304290360426922F0070253
:1046700041EA020140F09080D4E90A53002B41EA5C
:10468000050100F08980BCF5005F61D0BCF1000F2E
:104690006AD1022D74D0012D60D0002D70D072E04F
:1046A00045F26C41C5F6020188420BD045F28041CB
:1046B000C5F60201884205D045F29441C5F60201D3
:1046C000884243D104F1080E022184F835100021FC
:1046D00084F834100168A3699EE80450A2F18005B3
:1046E000E769B5FA85F566696D09402A4FEA8535AF
:1046F00043EA07026FF3101142EA060208BF1025D1
:1047000041EADC0142EA0E022943236A41EAD2016E
:104710004AF6F832CAF2FD724CF6CD470244CCF6A6
:10472000CC4741EA1311A2FB072301606FF003009D
:1047300000EA9300E0652046FCF7AEFDE16D012242
:1047400001F01F0102FA01F1416030E0402043E72F
:10475000032D18D8DFE805F00A140A02A3F1C0728D
:10476000B2FA82F252090FE0032D08D201220BE0C7
:1047700025F00302743AB2FA82F257096FE702D1C8
:10478000C3F3006200E0002232B1402060650120E6
:1047900084F83500BDE8F08141612046FCF77CFDDE
:1047A000E16D3F2201F01F0102FA01F181602068F2
:1047B000404519DC9F21C4F20201884231DC5721B7
:1047C000C4F20201884256DC1021C4F20201884280
:1047D00000F092802821C4F20201884200F08C800F
:1047E0004021C4F2020184E045F22F41C5F60201E6
:1047F00088422BDC40F2B741C4F20201884248DC17
:1048000040F27041C4F20201884275D040F2884102
:10481000C4F2020188426FD040F2A041C4F202010A
:1048200067E040F22741C4F20201884240DCA02147
:10483000C4F2020188425FD0B821C4F2020188426A
:104840005AD040F21041C4F2020152E045F26B41ED
:10485000C5F6020188423CDC45F23041C5F6020152
:10486000884249D045F24441C5F60201884243D00E
:1048700045F258413BE05821C4F2020188423BD046
:104880007021C4F20201884236D08821C4F20201AC
:104890002FE040F2B841C4F2020188422CD045F228
:1048A0000841C5F60201884226D045F21C411EE0AF
:1048B00040F22841C4F2020188421DD040F240413A
:1048C000C4F20201884217D040F25841C4F20201FA
:1048D0000FE045F26C41C5F6020188420CD045F26A
:1048E0009441C5F60201884206D045F28041C5F6E2
:1048F0000201884240F0D08045F2574C45F6FC0E4C
:10490000C5F6020CC5F6020E60450EDC45F22F43DB
:10491000C5F60203984217DC45F20843C5F60203C8
:10492000984226D045F21C431FE045F27F43C5F66E
:104930000203984211DC45F25843C5F6020398423F
:1049400017D045F26C4310E045F23043C5F6020340
:1049500098420ED045F2444307E045F29443C5F631
:104960000203984205D045F28043C5F602039842FF
:1049700050D100F0FC034CF6CD47083BCCF6CC47B9
:10498000A3FB0737AEF1FC05AEF17C063B0905EB56
:1049900083022266A26803F01F030127802A66664D
:1049A00007FA03F2A26601D1002262606368A56E75
:1049B000D4E91826DFB2591E07291760756015D88B
:1049C0007E1E072E62D860450EF1440213DC45F2CC
:1049D0002F41C5F6020188423CDC45F20841C5F68C
:1049E000020188424BD045F21C4144E00020606740
:1049F000C4E91B0050E045F27F41C5F60201884240
:104A000031DC45F25841C5F60201884237D045F203
:104A10006C4130E000F0F8034AF6AB27103BCAF6D1
:104A2000AA27A3FB073740F20F43C4F2020308256D
:104A30003E09984203F1AA02334688BF05EB1713DB
:104A400040F600059042C4F2020528BF334605F146
:104A500080069CE745F23041C5F6020188420ED03F
:104A600045F2444107E045F28041C5F60201884223
:104A700005D045F29441C5F60201884213D10EEBF0
:104A80008300E06601202267B040606704F16C0299
:104A9000002307CA03604A6000206065012184F892
:104AA0003510BDE8F08140F60000C4F2020000F1CC
:104AB000FC0E00F5A072E2E730B110B590F834407A
:104AC000012C03D1022010BD01207047012480F881
:104AD000344090F83540012C2BD1022480F8354029
:104AE00000244465D0F800C0DCF8004024F0010444
:104AF000CCF800400446FCF75BFC40F20F4C206809
:104B0000C4F2020C40F26F416045C4F2020118DCAD
:104B10006F23C4F20203984224DC3F23C4F2020351
:104B200098423ADC1023C4F20203984259D0282359
:104B300052E04FF400614165002180F834100120FB
:104B400010BD88421ADC40F23F43C4F2020398428F
:104B50002ADC40F21043C4F20203984241D040F2F2
:104B6000284339E09F23C4F20203984225DC7023D6
:104B7000C4F20203984234D088232DE040F29F43D0
:104B8000C4F2020398421FDC40F27043C4F20203F5
:104B9000984226D040F288431EE04023C4F202032C
:104BA00098421ED0582317E040F24043C4F202035B
:104BB000984216D040F258430EE0A023C4F20203FC
:104BC00098420ED0B82307E040F2B843C4F2020383
:104BD000984206D040F2A043C4F20203984240F04B
:104BE000238103680B2262F344030360226C1AB131
:104BF000082302681A430260884219DC9F22C4F22B
:104C00000202904231DC5722C4F20202904256DC8A
:104C10001022C4F20202904200F091802822C4F2D5
:104C20000202904200F08B804022C4F2020284E033
:104C300045F22F42C5F6020290422BDC40F2B74209
:104C4000C4F20202904248DC40F27042C4F2020216
:104C5000904274D040F28842C4F2020290426ED078
:104C600040F2A042C4F2020267E040F22742C4F2DE
:104C70000202904240DCA022C4F2020290425ED0C6
:104C8000B822C4F20202904259D040F21042C4F25B
:104C9000020252E045F26B42C5F6020290423CDC51
:104CA00045F23042C5F60202904248D045F24442F5
:104CB000C5F60202904242D045F258423BE05822EB
:104CC000C4F2020290423AD07022C4F20202904230
:104CD00035D08822C4F202022FE040F2B842C4F27A
:104CE000020290422BD045F20842C5F602029042E1
:104CF00025D045F21C421EE040F22842C4F20202D6
:104D000090421CD040F24042C4F20202904216D0BF
:104D100040F25842C4F202020FE045F26C42C5F67E
:104D2000020290420BD045F29442C5F60202904234
:104D300005D045F28042C5F6020290426ED1236E44
:104D40001A68D20303D51A6842F480721A60E36EBF
:104D50001BB11A6842F480721A60604510DC6F2142
:104D6000C4F2020188421CDC3F21C4F202018842E5
:104D700032DC1021C4F2020188424FD028214AE0DF
:104D800088421ADC40F23F41C4F2020188422ADC28
:104D900040F21041C4F2020188423FD040F2284163
:104DA00039E09F21C4F20201884225DC7021C4F25F
:104DB0000201884232D088212DE040F29F41C4F2A6
:104DC000020188421FDC40F27041C4F202018842B5
:104DD00024D040F288411EE04021C4F20201884202
:104DE0001CD0582117E040F24041C4F20201884231
:104DF00014D040F258410EE0A021C4F202018842D2
:104E00000CD0B82107E040F2B841C4F20201884258
:104E100004D040F2A041C4F202018842016841F08E
:104E200001010160002010BD0268052363F3430205
:104E30000260226C002A3FF4DFAE0423D9E60000B2
:104E4000B0B5044600F0ECFF40F2E0610546C2F266
:104E50000041621C097818BF0C4400BF00F0E0FF5D
:104E6000401BA042FAD3B0BD90F89830013B012B13
:104E70000BD80068836D0B420CD0836D0B408B42C6
:104E80000CD1C36D43F0020309E000F19C01012045
:104E9000022221E0C36D43F0010300E00323C36558
:104EA0008B0504D5D0F8E0301343C0F8E0304B0553
:104EB00004D5D0F8E4301A43C0F8E4204FF6FF726E
:104EC000436DC3F6CF720A401A4342658A0F4AF611
:104ED00014010020C4F200010B681A430A607047F5
:104EE00090F89830022B1BD1B0B50368D3F8C050AE
:104EF00015F07C5F1CD0D3F8C450AD021DD4D3F89C
:104F0000C4300546C3F304442346FDF7D9F82868A6
:104F10000121A140C0F8D0100020C5F89410B0BD08
:104F2000D0F89C1041F00801C0F89C100120704797
:104F3000D0F89C1041F0200103E0D0F89C1041F41F
:104F40000071C0F89C100120B0BD000000000000FE
:104F5000704700000000000090F89830012B0ED13F
:104F6000012900684FEA026211D0C9B9D0F8F010E7
:104F700021F07C511143C0F8F01000207047D0F8A8
:104F80009C1041F00401C0F89C1001207047D0F83B
:104F9000A01021F0FE411143C0F8A010002070477E
:104FA000D0F8B01021F0FE411143C0F8B01000203D
:104FB000704700000000000090F89820013A012A94
:104FC0000BD880B50A68002ACA680ED00B69072A78
:104FD00043EA427E16D18B6919E0D0F89C1041F06B
:104FE0000201C0F89C1001207047072A18D10A69F5
:104FF000D1E906C3120442EA032242EA0C0242F05B
:10500000605217E0D1F808C04B6943EA8C73006F17
:10501000496800EBC10240F831E05360002080BDD8
:105020008B68D1E904CE9B0743EAC26242EA0C4294
:1050300042EA0E024968C06E40F82120002080BD7F
:1050400090F898C0BCF1010F0DD19200006842EABF
:105050000111DDF800C041EA430141EA0C01C0F84A
:10506000801000207047D0F89C1041F00401C0F877
:105070009C1001207047000042F68841C2F20041B6
:1050800088420ED042F62851C2F2004188420AD02E
:1050900042F6C851C2F20041884218BF704704204E
:1050A00002E0012000E0022041F61471C2F200414A
:1050B0000A68104308607047704700000000000055
:1050C000B422402908BFA4220068805800F07F0065
:1050D000704700000000000070B590F89850022D55
:1050E00011D1402914D10468D4F8A05015F4FE0F52
:1050F0002BD0D4F8A4506D062CD0D4F8A450ED01D8
:1051000030D4002531E0D0F89C1041F0080125E0B2
:1051100041290FD10468D4F8B05015F4FE0F14D013
:10512000D4F8B4506D0615D0D4F8B450ED0126D49F
:10513000002527E0056DA94207D200F17C04D0F8D4
:1051400054E04FF0000C0D4626E0D0F89C1041F0E2
:10515000200103E0D0F89C1041F48071C0F89C104D
:10516000012070BDD4F8A050ED0FD4F8A440C4F3D2
:10517000052404EB050E00F17404456C0BE0D4F833
:10518000B050ED0FD4F8B440C4F3052404EB050E81
:1051900000F17804C56CF44605FB0EFE256855F851
:1051A0002E4014F08044546055F82E4024F06046A0
:1051B00008BFC4F38A46166055F82E4004F0005428
:1051C000946005EB8E0455F82E6006F000461661DB
:1051D000A688D661E68816F00F06D660666806F4E3
:1051E00080165661666806F400169661E67906F048
:1051F0007F06166266684FEAD67656620ED043F690
:105200009C0E04F108050024C0F6010E2E5D1E550B
:105210000134D6681EF80660B442F7D3402904D1A1
:105220000068C0F8A8C0002070BD412904D1006802
:10523000C0F8B8C0002070BD1F2907D8006801223F
:1052400002FA01F1C0F89810002070BD006801F06A
:105250001F01012202FA01F1C0F89C10002070BD6C
:105260000068D0F8C40000F03F0070470000000064
:1052700070470000000000002DE9F04F87B00446A1
:105280004AF61000C4F2000001684AF61400C4F2A5
:105290000000026820680A40D0F850B0D0F854905E
:1052A000056D466D036D0293436D0193036D069387
:1052B000436D0593036D0493436D0393D0F854A09D
:1052C000D0F850805FEACA5310D518F480710DD021
:1052D0004FF4807101654AF610010020C4F200010C
:1052E000174608602046FFF7C3FF3A460BEA090B52
:1052F0004AF610095FEA4A50C4F200094FEA827781
:105300001AD518F4806017D020689146D0F8DC10C8
:10531000D0F8E42011404FF4806202654AF6100292
:10532000C4F2000200201060204600F07DFC4A46D6
:105330004AF61009C4F2000905EA06050BF47046A6
:1053400057B120680021016502F00300C9F8000090
:1053500020463946FFF7FCFDDDE9011000EA0107B0
:1053600005F00F0546B12068314606650020C9F8F2
:105370000000204600F060FC07F0F00645B1206810
:10538000294605650020C9F80000204600F0D0FB42
:1053900046B12068314606650020C9F80000204665
:1053A00000F0CAFB5FEA0A500CD518F4006009D07F
:1053B00020684FF4006101650020C9F80000204614
:1053C00000F03EFC5FEA8A5011D518F400700ED050
:1053D0002068D0F8D810D0F8E02011404FF40072C7
:1053E00002650020C9F80000204600F021FC5FEAB9
:1053F0000A300CD518F4002009D020684FF40021A1
:1054000001650020C9F80000204600F08DFB5FEA2E
:10541000CA300CD518F4803009D020684FF48031A0
:1054200001650020C9F80000204600F0F9FB5FEAA2
:105430004A30DDE9031000EA01050CD518F480209C
:1054400009D020684FF4802101650020C9F80000D0
:10545000204600F0E1FB5FEA8A30DDE9051000EA52
:10546000010005F060710FD518F400320CD02268ED
:105470004FF4003313650022C9F80020D4F89C20B3
:1054800042F08002C4F89C2000F0715539B12068C8
:1054900001650020C9F800002046FFF70DFE4DB160
:1054A000206805650020C9F80000D4F89C00284356
:1054B000C4F89C002068A9F50161884209D0D4F89D
:1054C0009C00002868D0204607B0BDE8F04FFFF7E9
:1054D000D3BD606881688907F1D0016A426A036AB6
:1054E000476A114003EA070202F03005D0F8208035
:1054F000D0F82490D0F820B0466A026A069211F0E3
:105500000F01426A0592D0F824A0026A049203D0E7
:105510000162204600F074FB08EA09072DB16068BB
:1055200029460562204600F073FB5FEA4A6006EAFE
:105530000B0607F4C0750ED5049810F040000AD091
:1055400060684023C16BC26B090C02F03F0203622A
:10555000204600F059FBDDE9051000EA010706F4DA
:10556000FC462DB1606829460562204600F044FBE8
:1055700007F4F02036B161680E62D4F89C10314314
:10558000C4F89C1000289AD061680862D4F89C1076
:105590000843C4F89C0092E707B0BDE8F08F000014
:1055A00040B32DE9F04F83B04AF200080446C4F23C
:1055B00000080068404502D108F58070606094F8EA
:1055C000980028B9002084F89900204600F0CCF912
:1055D0002068816921F01001816100F021FC0546FD
:1055E00020688169090707D500F01AFC401B0B28C9
:1055F000F6D312E001207047816941F00101816119
:1056000000F00EFC054600BF20688169C90711D172
:1056100000F006FC401B0B28F6D30120D4F89C10A8
:105620000843C4F89C00032084F89800012003B0CC
:10563000BDE8F08F816941F002018161217C8269BE
:1056400022F04002012918BF40328261617C8269E8
:1056500022F48042012908BF02F580428261A17CC8
:10566000826922F48052012918BF02F580528261BA
:10567000816921F44073D4E902120B438361836989
:1056800023F0A4038361036923F0100303619AB13B
:10569000012A0DD0022A09D08369032A43F080032E
:1056A0008361036943F01002026105D1202200E00A
:1056B000042283691A438261D4E90572E369561EA4
:1056C0006FF0FF02256A02EB0323B1F5407F43EA46
:1056D0004663A5F1010646EA030640F20003CFF651
:1056E000FF7303EB074746EA0701C16110D1D4E914
:1056F0000B65D4E90917013F02EB06226FF00F0694
:105700003A4306EB05173A4303EB01411143C160ED
:10571000236E2BB1616ED0F8C0201143C0F8C010C9
:10572000E16DCDE90113D94243F2F871C0F60101F0
:1057300009D0D0F8C820A36E22F0070251F8233018
:105740001A43C0F8C820D4F840C0BCF1000F09D0FB
:10575000D0F8BC20636C22F0070251F823301A43C2
:10576000C0F8BC20D4F848B0BBF1000F0AD0D0F884
:10577000BC20E36C22F0700251F8233042EA03129D
:10578000C0F8BC20D4F850A0BAF1000F0AD0D0F86D
:10579000BC20636D22F4E06251F8231042EA01213B
:1057A000C0F8BC10404504D161688A6822F0030249
:1057B0008A600021C4F89410C4F89C10012184F878
:1057C000981004F13409D0F884104FF6FC7291431C
:1057D000656C99E80C02009541EA8201C0F88410DA
:1057E000D0F8841021F47F0141EA0341C0F884100D
:1057F0009918D0F888306FF38F0343EA8103C0F81B
:105800008830D0F8883023F4FE0343EA0943C0F817
:10581000883001EB4903D0F8A0606FF38F0646EAA9
:105820008306C0F8A060D0F8A06026F4FE0646EA21
:105830000C46C0F8A06005FB0C36D0F8B0306FF312
:105840008F0343EA8603C0F8B030D0F8B03023F4B9
:10585000FE0343EA0B43C0F8B030E36CD0F8AC5021
:105860006FF38F0503FB0B6645EA8605C0F8AC5065
:10587000D4F8548008FB0A65D0F8F0606FF38F0607
:1058800046EA8506C0F8F060D0F8F0E0A66D2EF488
:105890007C1747EA0647C0F8F070F70007EB85076A
:1058A000D0F8C0506FF38F052F43C0F8C070D0F808
:1058B000C070009DDDF804E027F47C1705FB0CFCAC
:1058C0004AF2000547EA0E47C0F8C070C4F200056E
:1058D00003FB0BC305F54067D0F8C05007EB82020D
:1058E00007EB810125F07C57029D47EA0567C0F868
:1058F000C07001EBC90008FB0A372167A16E00EBFD
:105900008C0C606700EB8303E266C4E91EC30EFBE8
:1059100001F300EB87006943C4F8800000EBC60088
:10592000C4F8840000EB8300C4F8880000EB810019
:105930004DF2FC31C4F20001C4F89000884201D954
:1059400020206BE6824208D2002000BF42F8040B00
:10595000D4F890108A42F9D369E6002003B0BDE87C
:10596000F08F000000000000B0B5B6B0044602A8F9
:10597000B8210025CDE93455CDE932553195FAF7F6
:1059800046FE4DF200412068C4F20001884278D002
:105990004AF20041C4F20001884239D04AF20001C3
:1059A000C4F20001884240F0BC80002003904FF414
:1059B000004002904FF080501D9002A801F060FD61
:1059C00008B1FCF735FB40F63C0144F2E040C2F27E
:1059D0000041C5F602000A68002A02F101020A60CD
:1059E00008D1C16841F48071C160C16801F480715F
:1059F000019101990168152441F0080101600068D6
:105A0000132500F0080001900198092103226AE0A3
:105A1000002003904FF4004002904FF080501D9002
:105A200002A801F02DFD08B1FCF702FB40F63C0195
:105A300044F2E040C2F20041C5F602000A68002AC2
:105A400002F101020A6008D1C16841F48071C160AD
:105A5000C16801F48071019101990168162441F037
:105A6000020101600068142500F00200019040F678
:105A700000400199C5F602000921A0F500606022EE
:105A800035E04FF4004002904FF080501D9002A886
:105A9000039501F0F5FC08B1FCF7CAFA40F63C01A9
:105AA00044F2E040C2F20041C5F602000A68002A52
:105AB00002F101020A6008D1C16841F48071C1603D
:105AC000C16801F48071019101990168A02441F03D
:105AD0000801016000689F2500F008000190052181
